:020000040800F2
:1000000070140020C1010008C9010008CB010008DC
:10001000CD010008CF010008D10100080000000058
:10002000000000000000000000000000D3010008F4
:10003000D501000800000000D70100087D05000878
:10004000DB010008DB010008DB010008DB01000820
:10005000DB010008DB010008DB010008DB01000810
:10006000DB010008DB010008DB010008DB01000800
:10007000DB010008DB010008DB010008DB010008F0
:10008000DB010008DB010008DB010008DB010008E0
:10009000DB010008DB010008DB010008DB010008D0
:1000A000DB010008DB010008DB010008DB010008C0
:1000B000DB010008DB01000800000000DB01000894
:1000C000DB0100080000000000000000DB01000868
:1000D00000000000DB010008DB0100080000000058
:1000E000DB010008DB010008DB01000800F002F87A
:1000F00000F03CF80AA090E8000C82448344AAF186
:100100000107DA4501D100F031F8AFF2090EBAE883
:100110000F0013F0010F18BFFB1A43F0010318473B
:10012000E006000000070000103A24BF78C878C13C
:10013000FAD8520724BF30C830C144BF04680C60ED
:10014000704700000023002400250026103A28BF35
:1001500078C1FBD8520728BF30C148BF0B60704739
:100160001FB500F062F81FBD10B510BD00F069F8B2
:100170001146FFF7F5FF00F03FFB00F087F803B4EE
:10018000FFF7F2FF03BC00F091F800000B49D1F833
:1001900000C04A685CF8043B1068184442F8040B3D
:1001A0008C4528BFA1F1DC0C8A4228BFA1F1DC02FA
:1001B000C1F800C04A6020F000407047080E0020DF
:1001C0000948804709480047FEE7FEE7FEE7FEE7EB
:1001D000FEE7FEE7FEE7FEE7FEE7FEE70448054927
:1001E000054A064B70470000C1050008ED000008F5
:1001F000700E00207014002070100020701000207D
:100200000B4910B5A1F17C020A4CC2E93712372123
:1002100006E000EB104342F82130074B00FB03409F
:100220000B1EA1F10101F4DC10BD0120E8E7000084
:10023000A80D0020E119D666CD0D0100704770476A
:100240007047754600F02CF8AE46050069465346E7
:1002500020F00700854618B020B5FFF7BFFFBDE8C6
:1002600020404FF000064FF000074FF000084FF01D
:10027000000B21F00701AC46ACE8C009ACE8C009AE
:10028000ACE8C009ACE8C0098D46704710B504461B
:10029000AFF300802046BDE81040FFF770BF0000BC
:1002A00000487047100E00207047000001491820D8
:1002B000ABBEFEE726000200F0B42F4F2F4D002208
:1002C00002EB4200C0EB421007EB800090F869108F
:1002D000F1BB8178E1B390F86A00C8BB002142E02D
:1002E00002EB4200C0EB421007EB80004318DC78C1
:1002F000012C06D0022C1AD0012C0DD0022C21D0BA
:100300002FE090F8644090F86560A4EB060C6C5CFC
:10031000A44501DB34446C5490F8644090F8656067
:10032000A41B6E5CB4421CDC0224DC700AE090F872
:100330006F4090F8666004EB060C6C5CA44501D835
:10034000A41B6C5490F86F4090F86660344400E051
:100350000BE06E5CB44204D30024DC7090F86F00B4
:100360006854521CD2B2602ABAD3521CD2B2102A9C
:10037000A6D3F0BC00F0E4B9EC0500201C0000207E
:100380002DE9F047334F00264FF001084FF00309E5
:1003900006EB4600C0EB461537F8250048B107EBE1
:1003A0008501897851BB401E0004000C27F8250008
:1003B00024D107EB8504A07810B1FF2803D01DE0FD
:1003C00084F802801AE00020A07094F86C1094F871
:1003D0006B0000F041F827F8250094F86A0098B106
:1003E0000121002000F038F884F8680094F87210B9
:1003F00094F87100673400F02FF82070761CF6B284
:10040000102EC5D3BDE8F08709EB850594F86D1073
:1004100094F86E00633400F01FF8C0B204F863096A
:100420003844405D0028F1D114F8631F394401F8C5
:100430000580617B207B00F00FF86070E17BA07B82
:1004400000F00AF8A070E17BA07B00F005F8E070F6
:10045000D4E70000EC05002070B50D460446FFF718
:1004600095FE291B491C90FBF1F201FB1200204470
:1004700080B270BD0CB5002226480092019201683E
:1004800041F4803101604FF4A063016801F4003150
:1004900001910099491C0091019911B90099994263
:1004A000F3D10168890333D5012101911A490A6802
:1004B00042F010020A600A6822F003020A600A6829
:1004C00042F001020A604168416041684160416850
:1004D00041F480614160416821F47C1141604168D0
:1004E00041F4E8114160016841F0807101600168E8
:1004F0008901FCD5416821F003014160416841F068
:10050000020141604168C1F381010229FAD10CBDA9
:1005100001920CBD001002400020024014484FF42C
:100520007A710068B0FBF1F0B0F1807F0DD220F05D
:100530007F414FF0E020491E41610E4AF02182F8D0
:10054000141D00218161072101610B48416941F0BF
:1005500001014161816941F001018161816941F0DD
:1005600004018161C16941F00101C16100F07EB8FF
:10057000000000200FE000E00010024070B50E49BE
:100580000868401C08600D4C00252088401C80B283
:100590002080B0F57A7F02D32580FFF7F1FE6088D6
:1005A000401C80B26080092804D96580BDE8704095
:1005B000FFF782BE70BD000014000020180000206C
:1005C0000F4810B5016841F00101016041680D4A12
:1005D0001140416001680C4A11400160016821F43A
:1005E00080210160416821F4FE0141604FF41F0148
:1005F0008160FFF73FFF05494FF00060086010BDC4
:10060000001002400000FFF8FFFFF6FE08ED00E0DA
:1006100010B50021144C1E22002004EBC1031A5413
:10062000401CC0B20828FAD3491CC9B23A29F3D3F6
:100630000021002004EBC1031A54401CC0B208285A
:10064000FAD3491CC9B23A29F3D30021002004EBA4
:10065000C1031A54401CC0B20828FAD3491CC9B2BD
:100660003A29F3D310BD00007C00002030B52E489D
:10067000016840F6CC429143016001689210114339
:100680000160016840F6880211430160284C274848
:100690002066284860664FF48D70E06554F8581F56
:1006A00041F4D87144F850192049091DC4F880104C
:1006B0002149C4F88410E067A16F41F4D871A167A3
:1006C0001A490831A1601D49E1606060206840F46A
:1006D000D87020600020D50628855A21A985A886D3
:1006E0002887A887288B40F068002883288B40F44F
:1006F000D0402883A88B40F06800A8834FF4606046
:10070000A881D0102884FFF783FF206D40F00100FE
:100710002065A06F40F00100A067206840F0010054
:1007200020608120288030BD000801403400004056
:10073000000002407C0000204C0200201C0400202D
:10074000F0B52C4F002107F1600C01267C5C0020E5
:100750000CEBC105C0F1070206FA02F31C4201D0FE
:100760003C2200E01E222B18401CC0B283F8D0208F
:100770000828EFD3491CC9B22029E7D31D4F002117
:10078000203707F5047C7C5C00200CEBC105C0F130
:10079000070206FA02F31C4201D03C2200E01E22AE
:1007A0002B18401CC0B283F8D0200828EFD3491C76
:1007B000C9B22029E7D30F4D0021403505F57077E8
:1007C0006B5C002007EBC104C0F1070206FA02F2DD
:1007D000134201D03C2200E01E2204EB000C401C1E
:1007E000C0B28CF8D0200828EED3491CC9B2202909
:1007F000E6D3F0BD1C000020FFF790FEFEE70000EE
:1008000020080008000000201C000000280100084B
:100810003C0800081C00002054140000440100089B
:1008200000B4C40400000000000000000102030442
:0C0830000607080900000000000000009E
:04000005080001C12D
:00000001FF
